:1000000034C004C752C769C868C867C866C865C82D
:1000100064C863C862C861C860C85FC85EC85DC89C
:100020005CC85BC85AC859C8010E01470010DC0102
:10003000670169800169016B80016B016D80016D51
:10004000016F80016F017180015B01610011290165
:1000500061016700112F0147015200111501520182
:100060005B0011200100010E800011241FBECFEFA4
:10007000D2E0DEBFCDBFE8E2F0E040E0B591A5916F
:1000800035912591059107FD0CC095918591EF0162
:10009000F92FE82F05900D92A217B307D9F7FE01AB
:1000A00004C01D92A217B307E1F7E936F40731F750
:0800B00082D500C0F894FFCFD7
:1000B800672B09F08BC0009711F470980895813070
:1000C800910511F4719808958230910511F4729890
:1000D80008958330910511F4739808958A30910535
:1000E80011F4289808958B30910511F429980895F2
:1000F8008C30910511F42A9808958D30910511F4EA
:100108002B9808958E30910511F42C9808958F300E
:10011800910511F42D9808958031910511F42E98C8
:1001280008958131910511F42F980895843191052E
:1001380011F4409808958531910511F44198089576
:100148008631910511F4429808958731910511F48B
:10015800439808958831910511F444980895893198
:10016800910511F4459808958A31910511F446983E
:1001780008958B31910511F4479808958E319105B2
:1001880011F4589808958F31910511F459980895EC
:100198008032910511F45A9808958132910511F42D
:1001A8005B9808958232910511F45C980895833222
:1001B800910511F45D9808958432910511F45E98C3
:1001C8000895859709F08BC05F980895009711F4FA
:1001D800709A08958130910511F4719A08958230CA
:1001E800910511F4729A08958330910511F4739A68
:1001F80008958A30910511F4289A08958B30910555
:1002080011F4299A08958C30910511F42A9A0895C9
:100218008D30910511F42B9A08958E30910511F4C3
:100228002C9A08958F30910511F42D9A08958031F4
:10023800910511F42E9A08958131910511F42F9AA0
:1002480008958431910511F4409A089585319105F6
:1002580011F4419A08958631910511F4429A08954E
:100268008731910511F4439A08958831910511F465
:10027800449A08958931910511F4459A08958A316F
:10028800910511F4469A08958B31910511F4479A16
:1002980008958E31910511F4589A08958F3191057A
:1002A80011F4599A08958032910511F45A9A0895D3
:1002B8008132910511F45B9A08958232910511F407
:1002C8005C9A08958332910511F45D9A08958432F9
:1002D800910511F45E9A0895859709F45F9A089537
:1002E8006F927F928F929F92AF92BF92CF92DF923E
:1002F800EF92FF920F931F93CF93DF93E3D660E0C3
:1003080081E017D686E391E07DD60CE010E0CAE0E4
:10031800D0E00F2EFCE0AF2EF02DB12C0F2EF4E61E
:10032800EF2EF12CF02D0F2EF9E08F2EF02D912CC1
:100338000F2EF6E06F2EF02D712CA8C00C30110591
:1003480039F46CE082E0F5D582E491E05BD606C032
:10035800602F82E0EED581E291E054D68FEC97E0F1
:100368000197F1F700C0000066E082E0E2D58091D5
:100378000C0190910D019927BE011FD680E3860FCD
:10038800DAD380910C0190910D019927BE0115D601
:10039800805DD1D38DE2CFD380910001909101018E
:1003A8009927BE010AD680E3860FC5D38091000144
:1003B800909101019927BE0100D6805DBCD38DE2E2
:1003C800BAD382E3B8D380E3B6D380910601909183
:1003D80007019927BE01F1D580E3860FACD3809140
:1003E8000601909107019927BE01E7D5805DA3D347
:1003F8008FEC97E00197F1F700C000004C9B36C0E6
:100408000C30110561F48091060190910701019665
:10041800B701D3D5909307018093060121C0093015
:10042800110569F480910001909101016A2D7B2DDD
:10043800C4D50196909301018093000111C0C0902A
:100448000C01D0900D01809100019091010122D4FE
:10045800BC01C601B2D5019690930D0180930C01A1
:100468008FE19EE40197F1F700C00000489B0EC0A1
:100478000C30110531F00930110531F00A2D1B2D12
:1004880005C0082D192D02C0062D172D499B56CFE2
:1004980037D485D2DF91CF911F910F91FF90EF90C4
:1004A800DF90CF90BF90AF909F908F907F906F908C
:0204B8000895A5
:1004BA008F929F92AF92BF92CF92DF92EF92FF926A
:1004CA000F931F93CF93DF93FCD560E081E030D583
:1004DA008EE091E096D56BE081E02AD584E191E047
:1004EA0090D560E082E024D58AE191E08AD50EE0D9
:1004FA0010E0CAE0D0E00F2EF8E1EF2EF12CF02D3B
:10050A000F2EFCE3CF2ED12CF02D0F2EFBE08F2ED9
:10051A00F02D912C0F2EFEE0AF2EF02DB12C69C0DC
:10052A00602F82E005D581E291E06BD58FE097E2FA
:10053A000197F1F700C000006BE082E0F9D48091E6
:10054A006F01909170019927BE0136D580E3860F1D
:10055A00F1D280916F01909170019927BE012CD53B
:10056A00805DE8D28AE3E6D280916D0190916E01B6
:10057A009927BE0121D580E3860FDCD280916D01D7
:10058A0090916E019927BE0117D5805DD3D28FE075
:10059A0097E20197F1F700C000004C9B20C00E3093
:1005AA00110561F480916D0190916E010196B60179
:1005BA0003D590936E0180936D010BC080916F01FA
:1005CA00909170010196B701F7D4909370018093CE
:1005DA006F018FE19EE40197F1F700C00000489B8C
:1005EA0008C00E30110519F00A2D1B2D02C0082D66
:1005FA00192D499B95CF20916F0130917001C90146
:10060A009927E1E6F1E0CAE0D0E0BE01D5D4605D09
:10061A006083805D818380916D0190916E0199273D
:10062A00BE01CAD4605D6383805D8483622F80E0EB
:10063A0090E02DD560916D0181E090E028D5DF91A1
:10064A00CF911F910F91FF90EF90DF90CF90BF90C5
:08065A00AF909F908F9008956E
:100662008F929F92AF92BF92CF92DF92EF92FF92C0
:100672000F931F93CF93DF9328D560E081E05CD482
:100682008EE091E0C2D46BE081E056D484E191E047
:10069200BCD460E082E050D484E291E0B6D40EE0B3
:1006A20010E0CAE0D0E00F2EF8E1EF2EF12CF02D91
:1006B2000F2EFCE3CF2ED12CF02D0F2EFBE08F2E30
:1006C200F02D912C0F2EFEE0AF2EF02DB12C69C033
:1006D200602F82E031D481E291E097D48FE097E2FB
:1006E2000197F1F700C000006BE082E025D4809111
:1006F2006B0190916C019927BE0162D480E3860F51
:100702001DD280916B0190916C019927BE0158D442
:10071200805D14D28AE312D28091690190916A01BC
:100722009927BE014DD480E3860F08D280916901DA
:1007320090916A019927BE0143D4805DFFD18FE079
:1007420097E20197F1F700C000004C9B20C00E30E9
:10075200110561F48091690190916A010196B601D7
:100762002FD490936A01809369010BC080916B0131
:1007720090916C010196B70123D490936C01809300
:100782006B018FE19EE40197F1F700C00000489BE6
:1007920008C00E30110519F00A2D1B2D02C0082DBC
:1007A200192D499B95CF20916B0130916C01C901A4
:1007B2009927EBE5F1E0CAE0D0E0BE0101D4605D2B
:1007C2006083805D81838091690190916A0199279C
:1007D200BE01F6D3605D6383805D8483622F82E015
:1007E20090E059D46091690183E090E054D4DF91A4
:1007F200CF911F910F91FF90EF90DF90CF90BF901C
:08080200AF909F908F900895C4
:10080A006F927F928F929F92AF92BF92CF92DF9216
:10081A00EF92FF920F931F93CF93DF9352D460E02E
:10082A0081E086D38AE291E0ECD30EE010E0CAE0E0
:10083A00D0E00F2EF8E1EF2EF12CF02D0F2EFCE375
:10084A00CF2ED12CF02D0F2EFBE08F2EF02D912CD8
:10085A006894662463F8712C0F2EFEE0AF2EF02DFB
:10086A00B12C8AC09BD0602F82E062D381E291E0F2
:10087A00C8D38FEC97E00197F1F700C0000068E059
:10088A0082E056D380910201909103019927BE011B
:10089A0093D380E3860F4ED1809102019091030198
:1008AA009927BE0189D3805D45D18AE343D18091DE
:1008BA000401909105019927BE017ED380E3860F3A
:1008CA0039D180910401909105019927BE0174D311
:1008DA00805D30D18AE32ED180910801909109017F
:1008EA009927BE0169D380E3860F24D1809108013C
:1008FA00909109019927BE015FD3805D1BD18FECCE
:10090A0097E00197F1F700C000004C9B25C00E301C
:10091A00110531F41092090110920801F0D11CC09E
:10092A000B30110569F4809104019091050101963B
:10093A00B60142D39093050180930401E0D10CC023
:10094A0080910201909103010196B70135D39093EA
:10095A00030180930201D3D1489B0EC00E301105CA
:10096A0031F00B30110531F00A2D1B2D05C0082D71
:10097A00192D02C0062D172D499B74CF0FD0DF9178
:10098A00CF911F910F91FF90EF90DF90CF90BF9082
:0C099A00AF909F908F907F906F90089519
:1009A60080ED09D280E01DD381ED92D353D390E040
:1009B600DAD290930901809308014CD390E0D3D208
:1009C600909305018093040145D390E0CCD2909397
:1009D6000301809302013ED390E0C5D290930B01B0
:1009E60080930A0137D390E0BED290930D01809395
:1009F6000C0130D390E0B7D29093010180930001AF
:100A060034D390E0B0D2909307018093060138D397
:100A16008091080190910901E2E5F1E02AE030E0D9
:100A2600B901CCD2805D8783605D668380910401C5
:100A360090910501B901C2D2805D8483605D6383B4
:100A46008091020190910301B901B8D2805D818342
:100A5600605D608380910C0190910D01E7E4F1E007
:100A6600B901ACD2805D8183605D608380910001B5
:100A760090910101B901A2D2805D8483605D638398
:100A86008091060190910701B90198D2805D818716
:060A9600605D6087089519
:100A9C0020916F013091700180916B0190916C01EC
:100AAC00821793070CF444C0409167015091680180
:100ABC0041305105C1F420910201309103012817F6
:100ACC003907B4F12091690130916A0180910401D8
:100ADC0090910501821793075CF1109268011092B6
:100AEC0067015D980895452B19F5409102015091CD
:100AFC00030142175307E4F084179507CCF080915B
:100B0C0004019091050120916D0130916E018217C5
:100B1C00930774F02091690130916A018217930751
:100B2C003CF481E090E090936801809367015D9ABA
:020B3C0008951A
:100B3E00CF93C82F61E070E08FE090E0B6DA8C2F93
:100B4E0082958F706CD061E070E08EE090E0ADDA4F
:100B5E008FEC97E00197F1F700C0000060E070E0C5
:100B6E008EE090E0A2DA8FEC97E00197F1F700C0EB
:100B7E0000008C2F8F7053D061E070E08EE090E01B
:100B8E0094DA8FEC97E00197F1F700C0000060E077
:100B9E0070E08EE090E089DA8FEC97E00197F1F744
:080BAE0000C00000CF91089582
:100BB6008FEF84B980EE8AB9D5D073D280EDFBD0A1
:100BC6008EE00FD280E00DD25BD278948EE08093D7
:100BD600690083E08DBB8DE280936400E1DE21D263
:100BE60080E090E064D290E09093700180936F0172
:100BF60081E090E05CD290E090936E0180936D016D
:100C060082E090E054D290E090936C0180936B0167
:100C160083E090E04CD290E090936A018093690162
:060C260085E083BFFECF54
:100C2C00CF93C82F80FF06C061E070E08DE090E0AC
:100C3C003DDA05C060E070E08DE090E037DAC1FF8E
:100C4C0006C061E070E08CE090E030DA05C060E056
:100C5C0070E08CE090E02ADAC2FF06C061E070E040
:100C6C008BE090E023DA05C060E070E08BE090E070
:100C7C001DDAC3FF06C061E070E08AE090E016DA8E
:100C8C0005C060E070E08AE090E010DACF91089542
:100C9C008230910559F4809106019091070183707F
:100CAC009927892BC9F08CE190E008959C012D7F48
:100CBC0021303105A1F085309105A1F09C01275020
:100CCC0031092230310588F08A30910589F00C9772
:100CDC0091F08EE190E008958DE190E008958FE120
:100CEC0090E008958FE190E008958FE190E00895F1
:0C0CFC008FE190E008958FE190E00895F2
:100D080080ED58D080E06CD1809108019091090164
:100D180094D166D180910401909105018ED160D162
:100D2800809102019091030188D15AD180910A01E2
:100D380090910B0182D154D180910C0190910D01B9
:100D48007CD18F7B4DD1809100019091010175D1AB
:100D580047D180910601909107016FD141D18FD180
:020D68000895EC
:100D6A0080E05FDF8FE39CE90197F1F700C00000A4
:100D7A0083E0BDD08FE097E20197F1F700C0000051
:100D8A0083E0B5D08FEE95E50197F1F700C000003A
:100D9A0083E0ADD082E0ABD082E0A9D088E0A7D0D2
:100DAA0080E0A5D08CE0A3D080E0A1D086E09FD0DF
:020DBA0008959A
:100DBC00CF93DF93ECEBF0E024EAA9EBB0E0CBEBC4
:100DCC00D0E034E844E9208390819923ECF79C919E
:100DDC00987F983011F09031B1F7888330839081EF
:100DEC009923ECF79C91987F903211F0983529F467
:100DFC004083908194FDFDCFE6CFDF91CF91089594
:100E0C001F920F920FB60F9211242F933F934F9373
:100E1C005F936F937F938F939F93AF93BF93EF9356
:100E2C00FF9313BEF894B9DDF9D032DE7894FF91BC
:100E3C00EF91BF91AF919F918F917F916F915F9146
:100E4C004F913F912F910F900FBE0F901F901895BF
:100E5C0094EA9093BC00ECEBF0E090819923ECF7D2
:100E6C009091B900987F983011F09031A1F4809353
:100E7C00BB0084E88093BC00ECEBF0E0808188231D
:100E8C00ECF79091B900987F983139F081E090346B
:0E0E9C0029F480E0089581E0089580E0089533
:100EAA001F920F920FB60F9211242F933F934F93D5
:100EBA005F936F937F938F939F93AF93BF93EF93B8
:100ECA00FF9313BEF894F7D0FCD07894FF91EF917A
:100EDA00BF91AF919F918F917F916F915F914F9148
:0E0EEA003F912F910F900FBE0F901F90189503
:100EF800CF93C82F60E070E08FE090E0D9D88C2FB6
:100F080091DE61E070E08EE090E0D2D88FEC97E05F
:100F18000197F1F700C0000060E070E08EE090E01B
:100F2800C7D88FEC97E00197F1F700C00000CF9188
:020F380008951A
:100F3A00CF93C62F813049F480E8860F82958F704F
:100F4A00D6DF8C2F8F70D3DF0AC0823041F480EC59
:100F5A00860F82958F70CBDF8C2F8F70C8DFCF9171
:020F6A000895E8
:100F6C009C0135952795359527953595279535957C
:100F7C002795A901440F551F440F551F240F351FEA
:0E0F8C00220F331F8F709927820F931F089535
:100F9A00AA1BBB1B51E107C0AA1FBB1FA617B70795
:100FAA0010F0A61BB70B881F991F5A95A9F78095B1
:080FBA009095BC01CD010895E2
:100FC20097FB072E16F4009406D077FD08D0E4DFD5
:100FD20007FC05D03EF4909581959F4F089570953A
:060FE20061957F4F0895A8
:100FE8008093BB0084E88093BC00ECEBF0E0808148
:100FF8008823ECF79091B900987F81E0983209F442
:0410080080E00895E7
:10100C00CF93DF93EC018881882329F0219691DD21
:0C101C0089918111FCCFDF91CF910895E4
:1010280063E081E086DF87E491E0ECDF64E082E062
:0A10380080DF82E591E0E6DF089515
:101042006AE070E0BDDF62957295707F7627607FFF
:081052007627860F971F089511
:10105A0084EC8093BC00ECEBF0E080818823ECF711
:06106A008091BB00089517
:1010700084E88093BC00ECEBF0E080818823ECF7FF
:061080008091BB00089501
:1010860084E98093BC00ECEBF0E0808184FDFDCF29
:021096000895BB
:10109800F999FECF1FBA81BD60BDFA9AF99A0895F1
:0C10A8001092B90080E28093B800089517
:0C10B400F999FECF81BDF89A80B508952F
:0C10C000FCD9CFDAA2DB10D901D00895D2
:0A10CC0080E014DF81E012DF0895D8
:0410D600C2DE0895D9
:0210DA0092C7BB
:1010DC0054696D65720068683A6D6D005374617285
:1010EC00743A0020200053746F703A0054696D6597
:1010FC002041646A75737400446174652041646AAC
:09110C00757374002020202000FE
:0B11150030302D30302D3230303000F3
:0911200030303A30303A30300032
:0611290030303A303000C6
:06112F0030303A303000C0
:00000001FF
